:02000002F0000C
:1040000000000420D1B40F00F9B40F00FBB40F007E
:10401000FDB40F00FFB40F0001B50F000000000059
:1040200000000000000000000000000045430F00F9
:1040300005B50F000000000007B50F009D4C0F00F4
:10404000B54D0F000BB50F000BB50F000BB50F00F2
:104050000BB50F000BB50F000BB50F000BB50F0024
:104060000BB50F000BB50F000BB50F000BB50F0014
:104070000BB50F000BB50F000BB50F000BB50F0004
:104080000BB50F0019750F000BB50F000BB50F0026
:10409000D5750F000BB50F00E9490F000BB50F00E8
:1040A0000BB50F000BB50F000BB50F000BB50F00D4
:1040B0000BB50F000BB50F00000000000000000062
:1040C0000BB50F000BB50F000BB50F000BB50F00B4
:1040D0000BB50F000BB50F000BB50F00C58B0F0014
:1040E0000BB50F000BB50F000BB50F000000000063
:1040F000000000000BB50F00000000000BB50F0022
:1041000000000000000000000000000000000000AF
:10411000000000000000000000000000000000009F
:10412000000000000000000000000000000000008F
:10413000000000000000000000000000000000007F
:10414000000000000000000000000000000000006F
:10415000000000000000000000000000000000005F
:10416000000000000000000000000000000000004F
:10417000000000000000000000000000000000003F
:10418000000000000000000000000000000000002F
:10419000000000000000000000000000000000001F
:1041A000000000000000000000000000000000000F
:1041B00000000000000000000000000000000000FF
:1041C00000000000000000000000000000000000EF
:1041D00000000000000000000000000000000000DF
:1041E00000000000000000000000000000000000CF
:1041F00000000000000000000000000000000000BF
:104200000348044B834202D0034B03B11847704765
:104210009882002098820020000000000548064B8C
:104220001B1AD90F01EBA301491002D0034B03B1B4
:1042300018477047988200209882002000000000F4
:1042400010B5064C237843B9FFF7DAFF044B13B1DE
:104250000448AFF300800123237010BD9882002032
:104260000000000014C20F0008B5044B1BB1044944
:104270000448AFF30080BDE80840CFE7000000002D
:104280009C82002014C20F00A3F5803A704700BF43
:10429000154B002B08BF114B9D46FFF7F5FF002182
:1042A0008B460F461148124A121A07F095FA0C4B2A
:1042B000002B00D098470B4B002B00D098470020D4
:1042C000002104000D000B4807F004FC07F09CF9E6
:1042D0002000290000F06EF907F0EAFB000008005A
:1042E0000000000000000000000004209882002070
:1042F00090E000203DBB0F0010B50C46E0B9096806
:10430000C1B10E48814207D0431A3B2B0ED83C2343
:104310005A5CC254013BFBD2084800223C2103F006
:1043200051FC074B18800023236010BD3C2207F08E
:1043300025FBF1E70E23F7E70123F5E7827F002055
:10434000807F0020074A6FF002039E4502D1EFF301
:10435000098101E0EFF308818869A0F1020000788B
:10436000104700BFF9420F0038B50446A8B13C2100
:104370000C48002203F026FC0B490B8883420ED127
:10438000084A02F13C0052F8045B44F8045B8242A4
:10439000F9D101330B80002038BD0E20FCE70B2043
:1043A000FAE700BF827F0020807F00200B2970B5D4
:1043B0000446154608462BD92389053304EB4301EF
:1043C0002044431ADAB2012A22D9814220D8134864
:1043D00007F0D4FA2388522B1CD1AB0704D0628893
:1043E0004CF668639A4215D134F8081F00234FF643
:1043F000FE704FF44055994201D80B2070BD34F83F
:10440000022F824208D0AE89964205D00133F2E7EE
:104410000920F3E70F20F1E70020EFE7B482002046
:1044200008B5002203F0CEFB034B1B88834214BF68
:104430000B20002008BD00BFB482002070B54C1EC8
:1044400020F47F66240B26F00F060134002506EBCE
:104450000530013500F00AFDAC42F8D870BD00000F
:1044600038B50C4C21684B1C054612D00A484FF455
:10447000805207F035FB48B115B1206800F0F6FC1A
:10448000054920684FF4806200F010FD4FF0FF33C3
:10449000236038BD008000201C8300202DE9F84FE8
:1044A000DFF858B0DFF85890DFF858A005460F46FF
:1044B000144698460CB9BDE8F88FD9F8003005EAE3
:1044C0000B06B3420AD04046FFF7CAFF4FF48052B2
:1044D00031465046C9F8006007F050FAC5F30B00AA
:1044E000C0F58056A64228BF26463946324650447B
:1044F00007F044FAA41B35443744DBE700F0FFFF24
:10450000008000201C830020BFF34F8F0549064B1D
:10451000CA6802F4E0621343CB60BFF34F8F00BF61
:10452000FDE700BF00ED00E00400FA054BDF704737
:1045300010DF704711DF704712DF704713DF7047DD
:1045400018DF70478FDF704760DF704769DF7047A3
:1045500061DF704767DF70471FB50023CDE9013386
:104560000393684602230093FFF7EAFF05B05DF866
:1045700004FB07B500230DF107008DF80730FFF7A6
:10458000DBFF9DF80730012B01D1FFF7D3FF03B00C
:104590005DF804FB08B54FF0E023D3F8F03DDB07EE
:1045A00000D500BEFFF7B0FF014B1878704700BF81
:1045B0001F9300202DE9F04FB54B4FF4206289B0D6
:1045C000C3F8402500F09CFA00F0F4FE002000F053
:1045D0006DFB00F06FFF48B1052000F067FB00F0B5
:1045E0007BFF00F09FFF062000F060FB4FF0804350
:1045F000A84FD3F81C45B12C0CBF012300233B70FE
:104600004ED0A4F1A8014B424B41DFF8B4824FF0E9
:10461000804288F80030D2F8001401F0010B002B22
:1046200040F052814E2C3DD0572C3BD09A4B1B680A
:104630001A689A4B9A4203D1BBF1000F40F04481B3
:104640006D2C40F04A814FF080430022C3F81C25B6
:1046500000F0A8FE044600F09FFABCB900F0D8FDB7
:10466000A0B100F027FF88B94FF440535A688C4B33
:104670009A4205D13B780BB9FFF76EFFFFF779FF40
:10468000854B1B6800221A6000F0E8FE854B1B7802
:1046900023B14FF08043A822C3F81C25FFF734FF55
:1046A0000123B2E7C2F81C35012600F0B1FDDFF8A6
:1046B000F0A1794ADFF80C92054628B126B91368B3
:1046C0001968794B994213D04FF440514B685345C8
:1046D0000ABF8B684FF4905303F500731B684B457A
:1046E00000F00E81002E40F00B81002D40F0FA808A
:1046F00000214FF440501268436853450ABF836855
:104700004FF4905303F500731868674B484518BF82
:104710000023136009B9002D9AD198F80030002BBE
:1047200000F0F480082000F0C1FA3B780BB9FFF7E5
:1047300013FF01234FF474203B70FFF7FFFE5B4B28
:104740005B491868019001A8FFF7F2FE594991F8FA
:104750001623EC2352091341DA0708D5564B9A6801
:10476000002A00F0CF801A6842F480021A60534B8E
:1047700002930C22002105A807F02EF840F2011345
:10478000029A059305A94020FFF7E0FE0C220021C4
:1047900005A807F021F89DF81430029A43F00103B0
:1047A00005A9A0208DF81430FFF7D0FE0C220021BF
:1047B00005A807F011F80125F723029AADF8163085
:1047C00005A923208DF81450FFF7C0FE0C2200210C
:1047D00005A807F001F80C26029A8DF8145005A9D7
:1047E00020208DF81650ADF81860FFF7AFFE324666
:1047F000002105A806F0F0FF029A8DF8145005A9D3
:1048000022208DF81660FFF7A1FE3246002105A890
:1048100006F0E2FF029A8DF8145005A90225212026
:104820008DF81650FFF792FE02A8FFF78DFE0021CB
:1048300008220DEB060006F0CFFF9DF80C300DEBC3
:10484000060143F0010328468DF80C30FFF782FE85
:104850004FF4405398F800005A6852450ABF9B68CD
:104860004FF4905303F500731B684B4503D0572C4E
:1048700001D04E2C54D1012240F6B83100F0B2FDE7
:1048800098F80030002B4ED0FFF773FEE0E600BF33
:1048900000A000401C93002004800020D51A5A007C
:1048A000DBE5B1511D9300207E67E54EF6BF0F009A
:1048B00095450F0000E100E08C9A00200080002068
:1048C0001F9300207CB0EE874FF0804300226D2CB8
:1048D000C3F81C257FF4E8AEBAE6122000F09EF87B
:1048E0000646E2E6BBF1000F3FF402AF13680F4942
:1048F00019600F4B0F4843F0010398470E4AF7E643
:104900000121F6E64FF480030B6030E7022000F04F
:10491000CDF9A4F14E035842584104F057F997E7F6
:1049200000221146AAE704F0A1F991E6D51A5A002F
:10493000F0BF0F000048E8010480002010B5FEB071
:104940004FF4FA73ADF802300DF10201002301A813
:10495000ADF80430FFF7FCFD044640B9BDF8043063
:10496000102B07D0112B15D001A801F03DFA2046DD
:104970007EB010BDADF800006946BDF80800FFF735
:10498000E1FD064A01231370054A0720137000F069
:104990008DF9E9E7014B18700820F8E71E93002015
:1049A0001D93002013B5002301A80193FFF7BEFD5E
:1049B000044650B9019802F061FC019B093B022BAF
:1049C00003D8034AD05604F099FD204602B010BD2A
:1049D000E0BF0F0008B5FFF7B1FF0528FBD1FFF7D7
:1049E000E1FF0528F7D108BD0021024A084603F07F
:1049F00009B800BFD5490F001F2884BF00F01F0071
:104A0000044B054A98BF4FF0A04300F5E07043F80F
:104A100020207047000300500C0003001F288ABFAD
:104A2000064B4FF0A04300F01F00D3F8103523FAD7
:104A300000F0C04300F00100704700BF00030050C9
:104A40007047704700234FF0FF328360C0F8003595
:104A5000C0F86025C0F86425C0F86825C0F86C254A
:104A600040F2FF32C0F80435C0F80825C0F80C3514
:104A7000C0F81035C0F81435C0F82035C0F824351A
:104A8000704700001B4B00221F2930B5C3F80025DA
:104A90008BBF01F01F030B46174A4FF0A04203F5EE
:104AA000E074032542F82450012404FA03F3C2F809
:104AB0000C3500F5AC700F4B002243F82010FF219D
:104AC000C3F804250220C3F808150421C3F80C1507
:104AD000C3F810050948C3F81425C3F82005C3F826
:104AE0002415C3F82825C3F82C25C3F80045C3F8BE
:104AF000102130BD00C00140000300501C95002073
:104B000038B54FF0804301240025DC601220C3F843
:104B100018559C60FFF770FF184B4FF4C8502343A3
:104B200098470D212846FFF7ADFF29212046FFF7C2
:104B3000A9FFFFF785FF124A1E21082002F03EFF61
:104B400008B102F0F7FF02F09FFE0E490E4BE02085
:104B500081F823001B684FF47A72B3FBF2F3013B38
:104B6000B3F1807F08D24FF0E0225361002381F837
:104B7000230093610723136138BD00BF00C00F00FD
:104B80002093002000ED00E0088000200148FFF79E
:104B900059BF00BF00C001404FF0E023002110B515
:104BA0001961FFF7F3FF154B154C4FF40032C3F8B2
:104BB000802003F1C04303F53C534FF48032C3F827
:104BC0004823C3F8082301225A609A604FF08043BB
:104BD0000220DA600B461F2BD5BF1A4603F01F02D6
:104BE0004FF0A041214602F5E0720133302B41F82D
:104BF0002200F0D1FFF725FF10BD00BF00E100E06B
:104C000000030050074B23F81010074B002282B01E
:104C1000C3F81021D3F810210192019A01229A6061
:104C200002B070471C95002000C0014010B5184B21
:104C30001C68184B1B68B4FBF3F103FB1141B1EB8B
:104C4000530F4FEA530288BF591A4F235943B1FB00
:104C5000F2F1C1F1FF0189B20020FFF7D3FF0E4B43
:104C60001B68B4FBF3F203FB1244B4EB530F88BF91
:104C70001C1B5A088F2303FB04F1B1FBF2F1C1F1B5
:104C8000FF01BDE8104089B20120FFF7BBBF00BFA4
:104C9000249500201895002014950020024A1368DE
:104CA00001331360FFF7C2BF249500201B4A11682F
:104CB000082823D8DFE800F013051322221A1E2447
:104CC0002A00174B40F6B83018604FF47F4303F0CA
:104CD000103323F08053994218BF13607047104B74
:104CE0004FF4967018604FF47F03F0E70C4B64228A
:104CF0001A6070470A4B40F6B83018600B46E6E77A
:104D0000084B40F6B8301860FF23E0E7054B4FF43E
:104D1000967018604FF0FF13D9E700BF1095002080
:104D2000189500201495002000F1804382B01A6885
:104D3000002A14BF0120002004D000221A601B6842
:104D40000193019B02B070470F4A1378D3B90378DF
:104D50004FF08041C3F34003C1F88035037803F07E
:104D60000103C1F87835094B1968C90706D4E02159
:104D700083F800130121C3F880111960012304484E
:104D800013707047034870473495002000E100E03D
:104D90000000AD0B0C00AD0B014B02681A607047B0
:104DA000289500204FF080434FF46072C3F804232D
:104DB0007047000010B54FF08043D3F804436207FA
:104DC00007D54FF48470FFF7AFFF10B11E4B1B687F
:104DD0009847A30608D54FF48A70FFF7A5FF18B1CE
:104DE0001A4B00201B689847600608D54FF48C705A
:104DF000FFF79AFF18B1154B01201B689847210651
:104E000008D54FF48E70FFF78FFF18B1104B0020BC
:104E10001B689847E20508D54FF49070FFF784FFB0
:104E200018B10B4B01201B689847A3050AD54FF416
:104E30009270FFF779FF28B1054BBDE810401B6861
:104E40000220184710BD00BF309500202C9500208F
:104E500028950020044AD2F80034DB07FBD5016016
:104E6000BFF35F8F704700BF00E001404FF08053F9
:104E70001A69B0FBF2F302FB130373B9084B022269
:104E8000C3F80425C3F80805D3F80024D207FBD5DE
:104E900000220448C3F8042570470348704700BF48
:104EA00000E001400000AD0B0A00AD0BF8B50B4B64
:104EB0001546012206460F46C3F804250024A542E4
:104EC00004D1064B0022C3F80425F8BD57F824107E
:104ED00006EB8400FFF7BEFF0134F0E700E001407D
:104EE000BFF34F8F0549064BCA6802F4E0621343D3
:104EF000CB60BFF34F8F00BFFDE700BF00ED00E0C8
:104F00000400FA054FF08053D3F83021082A03BF7C
:104F1000D3F83401B0FA80F0400900207047000057
:104F200008B54FF08053D3F83021082A4ED14FF006
:104F300080420021C2F80C11C2F81011C2F83815D5
:104F400002F54042D3F80414C2F82015D3F808142F
:104F5000C2F82415D3F80C14C2F82815D3F810148D
:104F6000C2F82C15D3F81414C2F83015D3F818145D
:104F7000C2F83415D3F81C14C2F84015D3F8201425
:104F8000C2F84415D3F82414C2F84815D3F82814ED
:104F9000C2F84C15D3F82C14C2F85015D3F83014BD
:104FA000C2F85415D3F83414C2F86015D3F8381485
:104FB000C2F86415D3F83C14C2F86815D3F840144D
:104FC000C2F86C15D3F84434C2F87035FFF79AFF75
:104FD00018B1484B484AC3F88C26FFF793FF18B125
:104FE000464BFB22C3F81825FFF78CFF58B14FF052
:104FF00080424FF08051D2F8E43ED1F8581261F36C
:105000000303C2F8E43EFFF77DFF20B13C4B4FF4B1
:105010000072C3F840264FF08053D3F83031082B8C
:1050200009D14FF08043D3F80024D10744BF6FF07B
:105030000102C3F80024334AD2F8883043F47003E5
:10504000C2F88830BFF34F8FBFF36F8F4FF010233C
:10505000D3F80C22D2071DD52B4B0122C3F804250F
:10506000D3F80024002AFBD04FF01022D2F80C32E3
:1050700023F00103C2F80C32234BD3F80024002A9A
:10508000FBD00022C3F80425D3F80024002AFBD06B
:10509000FFF726FFD3F80022002A03DBD3F80432FF
:1050A000002B22DA184B0122C3F80425D3F8002480
:1050B000002AFBD04FF010221221C2F80012D3F8C0
:1050C0000024002AFBD04FF010231222C3F8042240
:1050D0000D4BD3F80024002AFBD00022C3F804258E
:1050E000D3F80024002AFBD0D2E7084B084A1A6004
:1050F00008BD00BF005000404881030000F00040A0
:105100000090024000ED00E000E001400880002037
:105110000090D00313DF704718DF7047064B10462E
:105120001A78012A03D1012904BF02221A7008B19A
:1051300002F000BD704700BF7995002038B5FFF739
:1051400033FA10B3194C1C21204602F027F9042829
:1051500004D1FFF727FC0528FBD1F4E708B102F0E2
:10516000E9FC134C114D00231C222146284602F075
:1051700005F9042804D1FFF715FC0528FBD1F2E757
:1051800098B1BDE8384002F0D5BC4FF47F20FFF75E
:105190006DFE072206494FF47F20FFF787FE054B7F
:1051A0001A78012A04BF02221A7038BD7C950020AB
:1051B000389500207995002070B5124C124D134E91
:1051C000D4F800347BB1C4F80056C4F80456C4F8CF
:1051D0000856C4F80C56C4F81056C4F81456C4F84F
:1051E0001856C4F81C5602F077FC06F02EF920B1D0
:1051F00004F04CFF002005F055FB3378023B032BF5
:10520000DED870BD000001403546526E7995002011
:1052100013B54FF44053124A596891420CBF9C6831
:105220004FF4805401A800F0AFF92368013302D194
:105230006368013311D0019B1A88012A0DD1588867
:1052400020B199680022204602F0BCFC019B5B88DB
:105250001B1A5842584102B010BD0020FBE700BFA6
:10526000DBE5B15184B02DE9F34108AC84E80F00CF
:105270009DF82080BDF8227001A80E4615461C46F8
:1052800000F082F9B8F1060F51D8DFE808F00410F9
:105290002F2158456100314B0122FF215F809C6026
:1052A0001A8099802E4B1A70FFF748FF3FE02B4B76
:1052B000721922449A60A5221A80C3E90365FF226D
:1052C0009A800C9A5F805C619A61254B0122EAE723
:1052D000019A224B11881980518892689A60AA22FB
:1052E000C3E9036559809A805C61EEE7019A1B4B24
:1052F0001188A5290AD100229A60FF221A60FF2294
:105300009A800022C3E903225A61DEE7198051889E
:10531000926859809A60F2E7FFF746F960B100F0B1
:1053200015FE08B102F006FC0D4B03221A7002B004
:10533000BDE8F04104B0704700F056FAF1E7074BC2
:1053400000229A60FF221A60019A92889A80ABE745
:105350009DF83430024A04331370E8E73895002092
:105360007995002000B50D4B1B7889B07BB90C4BAB
:105370001B7883B905238DF8083008AB13E90300C7
:105380008DE8030002AB0FCBFFF76CFF03E004F0E6
:1053900077FC0028EBD009B05DF804FB789500207D
:1053A00054950020024B1878431F584258417047CB
:1053B000799500201FB50023CDE90233074B0193F7
:1053C00001F0ACFF30B906494FF47F2301A84B60D0
:1053D00001F0C2FF05B05DF804FB00BF1D510F00D6
:1053E0007C95002070B505460E460AB180F001029A
:1053F000154B02F001021A7001F080F8044628B93A
:1054000035B100F0FFFC0446FFF7D6FE204670BD24
:10541000BEB10E4B0E4A0F481D70294602F064FAC9
:105420004FF400444FF4FA7029464FF47A72002387
:10543000E6FB040106F04EFC2A460146064802F04F
:1054400065FA00F0ADF9DEE778950020549500206C
:1054500065530F0018C00F00589500201FB5134B5F
:105460004FF0FF32C3F88020C3F880214FF440533F
:105470000F4A596891420DD19C682046FFF74AFEB9
:1054800010B14FF000531C60204604B0BDE810403E
:1054900000F0C6B80023CDE902334FF48054062350
:1054A0006846CDE90034FFF737FEE9E700E100E0A8
:1054B000DBE5B15107B501A800F066F8019B1A8839
:1054C000A52A07D09888A0F1AA035842584103B0F2
:1054D0005DF804FB0120FAE710B501F0B3FAA8B1BA
:1054E0000E4B0F4843F00103984701F0E9F908B16A
:1054F00002F020FB01F0A6FA08B102F01BFB01F05C
:105500002BFA044638B102F015FB04E001F048FA2A
:1055100004460028E4D1204610BD00BF10C00F0093
:1055200000A8610000B589B002AB1822002118461E
:1055300006F052F902228DF8082008AA034612E963
:1055400003008DE803000FCBFFF78CFEFFF734FE5E
:10555000002009B05DF804FB13B5044601A800F073
:1055600013F8019B1A8822805A8862809A68A26088
:105570009A88A280DA68E2601A6922615A696261D7
:105580009B69A36102B010BD014B0360704700BF6F
:1055900000F00F00F0B50346002585F3148885F36D
:1055A000108885F3118885F31388186880F30888BC
:1055B0005868FF2464B2EFF30585002D01D1A6469B
:1055C00000472546064621273FBAF0B400240025AF
:1055D00000260027F0B4F92040B20047F0BD00BF1C
:1055E00070B50E4C226800230225072A02D903B1A8
:1055F000226070BD130103F1804303F5F4330132DF
:10560000186059609D601E68B04205D15E68B14265
:1056100002D19B68022BEBD00123E6E784950020A2
:1056200010B54FF4805104460020FFF7D9FF4FF426
:1056300074204FF44041FFF7D3FF2046BDE81040EF
:10564000FFF7A8BFF7B500230DF1020101A8ADF8DF
:105650000230019302F0F0FE034600BB019805788A
:105660005DB3184A92F83010032928D00C2707FBA5
:1056700003F416191159E1B992F83030155101337C
:10568000DBB282F83030BDF802300F4A04309B089C
:10569000013BB0600846736002F0B4F9034601981C
:1056A00028B123B102F0E4FE08B102F043FA03B0DE
:1056B000F0BD0133042BDAD1F1E70723EFE7042330
:1056C000EDE700BF8895002011570F00084609B18B
:1056D00002F030BA7047000010B50C2343430B4A68
:1056E000D418D158A06879B192F830100139C9B2F4
:1056F00082F8301004380021C4E90111D15002F0C1
:10570000B7FE08B102F016FA002010BD88950020FF
:10571000214B70B50122214E1A7096F8303003B932
:1057200070BD1E4C0025236883B1013B042B07D8B4
:10573000DFE803F01C0612032800204600F08EFF6D
:10574000E8B2FFF7C9FF08B102F0F4F90135042D02
:1057500004F10C04E7D1E0E7A3686360204600F0A1
:105760001DFF0028ECD002F0E5F9E9E7204601F042
:105770000DF800F0E9FF08B102F0DCF90520FFF7B1
:1057800095FADDE701F034F801F056F8BDE8704015
:105790000620FFF78BBA00BF5495002088950020A3
:1057A00008B50E4B002283F8302004210139C3E9EB
:1057B00001221A6003F10C03F8D1094800F0E8FE59
:1057C00002F0D2FD08B102F0B5F9064802F0B8FDCA
:1057D00008B102F0AFF9002008BD00BF8895002095
:1057E000CD560F0045560F0008B50020FFF774FF97
:1057F0000120FFF771FF0220FFF76EFF0320FFF784
:105800006BFFBDE8084002F0F7BD006870476CDF31
:1058100070476DDF70476EDF70476FDF704772DF74
:10582000704773DF704774DF704775DF704776DF4E
:10583000704777DF70477ADF70477CDF70477FDF24
:10584000704786DF70478FDF704790DF7047AFDFAC
:105850007047B0DF7047B1DF7047B2DF7047B5DF28
:10586000704764DF704766DF704767DF70470C285A
:105870000AD8DFE800F00709090909090B0914092A
:10588000090F0D0001207047062070470320704764
:105890000420704704290CBF052006207047022011
:1058A000704702F047B9000007B50822002168469A
:1058B00005F092FF074B1B88ADF8003069460023C6
:1058C0002120ADF802300193FFF7CFFF03B05DF860
:1058D00004FB00BF1480002010B5044608460321D5
:1058E000FFF7C5FF0246204601F084FA18B1BDE873
:1058F000104002F01FB910BD032838B50C461546FC
:1059000024D004282AD179B1FFF7CEFF144B188890
:105910004FF6FF73984221D01321FFF788FFE8B1BB
:10592000BDE8384002F006B9104602F0A9F908B106
:1059300002F000F90B4B1B689D420FD1FFF7B4FF3B
:1059400001220321084801F055FAE8E7FFF7ACFF10
:1059500001212046FFF78BFF0246F3E738BD00BF69
:1059600014800020F49500204C960020F8B50A4DD4
:10597000AB889E181D2E14460DDC2F68FE1802F110
:10598000010C07F803C07070B01C05F0F7FFAB887E
:1059900002331C44AC80F8BDDC950020F0B54D4EC0
:1059A000347893B0002C40F091804B4D102221466A
:1059B000284605F011FF494B2B60182221460CA800
:1059C00005F00AFF01238DF8303028230E93444B55
:1059D0001B78002B7CD0434B02AC03F110051868F8
:1059E0005968224603C20833AB421446F7D13E48F9
:1059F000102202A906F074F8002869D03B483C4CFC
:105A000004600121FFF707FF08B102F093F8364B5D
:105A100006AA03F1100C174618685968154603C505
:105A2000083363452A46F7D12068A2880A90314896
:105A3000A379ADF82C20002101228DF82E300760CB
:105A4000FFF7EBFE08B102F075F803238DF8443040
:105A500004238DF8063041F23053ADF80830264B60
:105A600006AA9B798DF80A300DF1070102A8FFF70D
:105A7000F8FE012210460DF10601FFF777FF1F48DF
:105A800005F03EFE1D49C2B20920FFF76FFF10224C
:105A900006A90620FFF76AFF0F4919480CAAFFF76D
:105AA000BEFE08B102F046F8154C04222178012010
:105AB000FFF7BFFE08B102F03DF820780121FFF7A3
:105AC000B0FE08B102F036F80123337013B0F0BD18
:105AD0000623BEE736960020DC950020BC9500200A
:105AE000F8950020A7C00F0001960020F095002037
:105AF000FA950020EC9500204C9600201CC00F0069
:105B00000C800020F0B50388262BB1B004463BD8AA
:105B10000F2B04D8012B00F0D98031B0F0BD103B21
:105B2000162BFAD801A252F823F000BFB55B0F0084
:105B3000E15B0F001B5B0F00135C0F00095D0F00A2
:105B40001B5B0F001B5B0F001B5B0F001B5B0F0041
:105B50001B5B0F00255D0F001B5B0F001B5B0F0025
:105B60001B5B0F001B5B0F001B5B0F001B5B0F0021
:105B7000975D0F001B5B0F00895D0F001B5B0F0023
:105B80001B5B0F00895C0F00513B9AB2052AC4D8F9
:105B9000052BC2D801A252F823F000BFD95C0F0038
:105BA000255D0F001B5B0F001B5B0F00A95D0F0045
:105BB0006F5C0F00834B80881880834B00221A7023
:105BC000236910930423ADF8443010A9E38AADF89B
:105BD0004630FFF72AFE00289FD001F0ABFF9CE77C
:105BE0008023784CADF82430784B208832221A601C
:105BF00010A9012309AAFFF730FE08B101F09AFFAE
:105C0000734B1B780BB9FFF7C9FE4FF6FF73238068
:105C100083E7704B03AC9A79186899888DF8222035
:105C20000790DA1DADF8201017332646106851682A
:105C3000254603C508329A422C46F7D1664B09AA7D
:105C400003F11807154618685968144603C4083349
:105C5000BB422246F7D1186820605A485F4A008844
:105C600010AB8521CDE91456FFF7E9FDB3E7A37921
:105C7000002B7FF452AF534B13211888FFF7D7FD49
:105C800000283FF44AAF7AE0037A012B7FF445AF56
:105C90004D4B00221A704D4B19680139196081B9BA
:105CA00010AB1822184605F097FD0346DDE91401F4
:105CB0008DE8030005228DF840200FCBFFF7D2FAC4
:105CC0002BE731B0BDE8F040FFF768BE3D4B002147
:105CD0001888FFF7C8FDD3E7A379002B3FF41DAF69
:105CE000A27B043A022A3FF618AF022B18BF012309
:105CF0008DF840304FF4C173ADF84430314B10A9EA
:105D00001888FFF7A6FD66E7324A058A508D02F132
:105D100018010023854218BF19460732A088FFF7F3
:105D200090FDADE7274C20884FF6FF75A84225D09F
:105D30002B4B1B78EBB12B4901230822FFF78BFD7E
:105D4000E8B90246014602232088FFF784FDB0B976
:105D500020882A460C21FFF77AFDA0F54053023B2C
:105D6000012B7FF6DAAE08283FF4D7AE112887D191
:105D7000D3E61A461946FFF76EFD81E7082031B0D9
:105D8000BDE8F04001F0D6BE0E4B00221888114647
:105D9000FFF75BFD74E70023ADF84030094B10A915
:105DA0001888FFF750FDB8E6E188064BF72928BFB1
:105DB000F72121F00301188841F00301FFF74FFD9F
:105DC0005EE700BF1480002036960020108000207F
:105DD00038960020FA950020129600207C9600202C
:105DE000F89500202E96002010B501460446044880
:105DF00001F03CF82046BDE81040FFF783BE00BF2D
:105E00004C96002030B5424A424800231370424A63
:105E100095B0137000F0BCFB01F0F2FE04460028C0
:105E200060D13E48FEF7A0FA00285ED13C4B01222B
:105E30001A7011233B488DF8043005F061FC394994
:105E400082B201A8FFF7F9FC08B101F073FE082245
:105E5000002104A805F0C0FC334A344B04A8CDE966
:105E60000423FFF7E8FC08B101F064FE00210C22D6
:105E700001A805F0B1FC0823ADF804302C4B0293C7
:105E80002C482D4B039301A900F01AFE08B101F034
:105E900051FE2A4D4022002104A805F09DFC284611
:105EA00005F02EFC0595264DADF81000284605F0AE
:105EB00027FC0795234DADF81800284605F020FC77
:105EC0001123ADF8300004A8ADF84C300D9501F069
:105ED000E1F81D4B30221A7007225A7010229A7076
:105EE000FFF75CFD204615B030BD04A8FFF791FC1C
:105EF00008B101F01FFE9DF8113004A801338DF8A0
:105F00001130FFF784FC002893D001F013FE90E7D6
:105F100038960020F9580F0049960020FA95002085
:105F2000F89500201CC00F000C001800040020038E
:105F30009D5F0F004C960020A3580F0023C00F0058
:105F40002BC00F003FC00F007C96002010B50F4BF8
:105F500001221A700E4B18884FF6FF73984207D033
:105F60001321FFF764FC08B101F0E4FD002010BD2F
:105F7000084C2378002BF9D0074B1878FFF753FC17
:105F800008B101F0D7FD00232370EFE73896002019
:105F900014800020369600200C800020F0B50B788D
:105FA0008BB005460C46092B35D8DFE813F02D00E1
:105FB000360041000A00190026001C01250144009A
:105FC0002A0100F015FC0421FFF751FC0246284687
:105FD00000F010FFF8B10BB0BDE8F04001F0AABD31
:105FE000FFF7B4FF08B101F0A5FD00F025FC90B16A
:105FF0000BB0BDE8F04000F037BCFFF7A7FF00286A
:10600000F6D001F097FDF3E7804B01221A704B6840
:106010001A787F4B1A700BB0F0BD7C4B02261E70B5
:106020004B681B78012BF6D100F08EFB3146CBE795
:10603000764B0322EEE70520FEF738FE734B1E7801
:10604000022E4BD0032E6ED0012EE4D106AB1022CF
:106050001846002105F0C0FB6D4A237A12788DF8AE
:106060001820002703220C2BCDE90320059708D028
:106070003146284600F0BEFE0028CCD001F05AFD83
:10608000C9E763681846FFF7C0FB0790181DFFF7C4
:10609000BCFB089003F10800FFF7B7FB082209904A
:1060A000394601A805F098FB5A4B02971B88ADF8BA
:1060B000043001A932232120ADF80630FFF7D5FBCB
:1060C00003A800F06BFA04460028A4D0FFF7ECFB0D
:1060D00031462046FFF7CBFB0246CAE7237A13F08E
:1060E000030011D0C0F104021A44D2B219464FF095
:1060F000000C0E4601316768C9B2914207F806C02C
:10610000F7D11B1A043323720123069363680893A3
:10611000237A06A89B08079300F038FB00283FF479
:106120007AAF0221D6E7207A830702D03246314681
:106130004DE7394E0390314601F078FD014618B124
:106140002846FFF7C9FB66E76168039A306805F0E7
:1061500015FC039801F0D0FD01460028F0D103A9F9
:10616000304601F0D9FD01460028E9D10423069309
:10617000039B9B08079306A83368089300F06EFA08
:10618000074640B9254A237A11680B441360244B13
:1061900032681A603FE709281BD1204B217A1A6820
:1061A000114419601F4B1B78002B3FF434AF1E4C79
:1061B0002388013B9BB22380002B7FF42CAF284621
:1061C00000F0D0FD08B101F0B5FC184B1B8823800E
:1061D00021E7306801F054FD014610B12846FFF771
:1061E0007BFB3946ACE70F4B01221A700F4A8B88B4
:1061F00013800D4A13800EE70A4A002313700B4ADE
:10620000F8E7064B196800F063FDE3E649960020C5
:1062100048960020148000203C96002044960020E0
:10622000F4950020379600204096002042960020EA
:1062300018DF70470129F8B50D4614461E4607D0F1
:10624000032912D00CB32046BDE8F84001F072BC1F
:106250000E4B1B78052BF5D10D4B1B68002BF1D095
:106260003246214604209847ECE7084F3B78022B42
:10627000E8D1084B5B689847054B3D701B68002BC5
:10628000E0D0324621462846EDE7F8BD5C97002075
:10629000909600208496002000B5094B89B0012219
:1062A0001A7005238DF8083008AB13E903008DE858
:1062B000030002AB0FCBFEF7D5FF09B05DF804FB7E
:1062C000A096002000B589B002AB18220021184624
:1062D00005F082FA03228DF808200C4A1288ADF8E6
:1062E0000A200B4A516803919168D268059208AA66
:1062F0000491034612E903008DE803000FCBFEF77B
:10630000B1FF002009B05DF804FB00BFC496002077
:106310004897002000B589B001238DF80830114B53
:10632000114A1B88ADF80A304FF440535968914226
:106330000CBF9B684FF4805306930C4B5A68039232
:106340009A68DB68059308AB13E903008DE8030046
:10635000049202AB0FCBFEF785FF002009B05DF879
:1063600004FB00BFC4960020DBE5B1514897002034
:1063700000B589B002AB18220021184605F02CFAAE
:1063800004228DF8082008AA034612E903008DE8CC
:1063900003000FCBFEF766FF09B05DF804FB0000B9
:1063A00030B589B002AC18252A460021204605F0F8
:1063B00013FA2A460021204605F00EFA0A4B1B88E4
:1063C000ADF80A30094BDB68059308AB13E903000D
:1063D0008DE8030000258DF8085094E80F00FEF7C3
:1063E00041FF284609B030BDC496002048970020E0
:1063F000184B37B5184D1D60184B194C02221A70F6
:10640000FEF7D2F880B12168284600F0C7FF0428C3
:1064100004D1FEF7C7FA0528FBD1F4E7C0B103B0F9
:10642000BDE8304001F086BB4FF440530D4A596837
:10643000914208BF9868216818BF4FF48050FDF75B
:10644000FDFF0023044800931A460321FFF7F2FEE4
:1064500003B030BD94960020989600205C970020F1
:1064600058970020DBE5B15110B50B4B1B788BB969
:106470000A4801F093FA08B101F05CFB07480022DA
:106480004FF4340101F042FA044608B101F052FB26
:10649000204610BD0824FBE7A0960020A49600200B
:1064A000F0B51F4685B00323CDE9003005469608B8
:1064B00068460C4602910396FFF7BAFEE0B1B4F5C8
:1064C000805F11D801236846CDE90035CDE9024649
:1064D000FFF7AEFE80B903236846CDE90035CDE96C
:1064E0000246FFF7A5FE07E03B463A46E11BE81BE4
:1064F000FFF7D6FF0028E5D005B0F0BD30B585B078
:10650000194B0193194B1A4900241C70194B01A80F
:10651000CDE902441C8000F01FFF0546F8B94FF496
:106520004053154A596815489142114A0CBF9B685F
:106530004FF4805353600021114A01F0D5F908B19E
:1065400001F0F8FA0F4800224FF4340101F0DEF9AF
:1065500008B101F0EFFA0C4B00221A6001240B4B3A
:1065600028461C7005B030BD35620F00C69600206D
:1065700098960020C4960020DBE5B151B8C00F000A
:1065800099620F00A4960020609700205C9700207D
:10659000014B1860704700BF9096002070B54368AB
:1065A000244C0FCB84E80F002278510701D59307C4
:1065B00039D163689E0736D1A1688D0733D1E06871
:1065C000840730D11C4E0B440344B1F5204F336097
:1065D0002BD84FF4405119484C6884420ABF89684F
:1065E0004FF46921C1F56A218B421ED8D30718D414
:1065F00012F0020F124A134B08BF1346124D134AF2
:106600002A60134AC5E90123124B1B78012B0ED1D6
:10661000FFF72AFF044610B92B68306898472046D8
:1066200070BD0D4BEAE70624F9E70C24F7E70824D0
:10663000F5E700BF4897002058970020DBE5B151EF
:10664000A1630F00C5620F0084960020F1630F0064
:1066500071630F005C97002015630F002DE9F3476D
:10666000074600285DD083689B075CD1314B1B78BF
:10667000052B5AD1304E42683368DFF8C48003EBF3
:1066800082039500D8F80020934207D94FF0FF33DA
:1066900033600C24204602B0BDE8F087FFF7E4FE2B
:1066A00004460028F6D1D7F808A0DFF89890FDF747
:1066B0007BFF80B13368D9F800002A46514600F0CC
:1066C0005DFE042804D1FEF76DF90528FBD1F1E742
:1066D000C8B10446DEE74FF44053184A596837689A
:1066E00091420CBF98684FF4805000232A465146CF
:1066F0003844FDF7D3FE0095D9F800005346002238
:106700000121FFF797FD33681D44D8F8003035604C
:106710009D420CD1FDF748FF0028BBD1FDF7A0FE3C
:10672000B8E70E24B6E71024B4E70824B2E709243A
:10673000B0E700BF5C97002060970020DBE5B15117
:10674000589700209496002070B50B4B1D6885B9B2
:106750000A4E3378042B0CD1094C0A4B21781A7855
:106760000948FDF723FE10B90523337070BD25706D
:10677000FCE70820FAE700BF609700205C97002044
:10678000C696002048970020C7960020F8B5144B05
:106790001A78032A054604D0042A04D00824204687
:1067A000F8BD04221A700F4B1B68002BF6D1FFF7BF
:1067B0005BFE04460028F2D10B4E6B6830789F00D8
:1067C00000EB8303802B09D8084BA96818443A468C
:1067D00005F0D4F833783B443370E0E70924DEE772
:1067E0005C97002060970020C6960020C796002086
:1067F00038B50D4C2378052B14D10C4B0C4D1A6871
:106800002B689A420ED106232370FFF72DFE40B964
:10681000084B29681B685868FDF702FE08B9072372
:10682000237038BD0820FCE75C97002060970020AB
:10683000589700209496002010B5084B1B78072B22
:106840000AD1074801F0AAF808B101F073F9054B25
:10685000BDE810409B681847082010BD5C970020D9
:10686000A49600208496002000B589B002AB1822BF
:106870001846002104F0B0FF06228DF808200D4ACA
:106880001278052A034613D10B4A0C49126809688D
:10689000521A18BF01228DF81C2008AA12E9030021
:1068A0008DE803000FCBFEF7DDFC09B05DF804FBBB
:1068B0000022F0E75C9700206097002058970020A6
:1068C000F0B58DB005A8FEF747FE089C002C3ED021
:1068D0000B9E04F58053B3422DD91E4DA6F580536F
:1068E00005EA53054FF440539B689C420BD869005E
:1068F0002B46A4EB450201F5805106EB4500FFF75E
:10690000CFFD0DB0F0BD05F58053012701A8CDE9FD
:106910000173CDE90337FFF78BFC0028F1D14FF469
:10692000805301A8CDE9023301970497FFF780FC5B
:106930000028E6D1DBE70123CDE90136A4084FF4B6
:10694000805301A803930494FFF772FCD9E7204613
:10695000D7E700BF00F0FFFF00B58DB005A8FEF738
:10696000FBFD099880B1089B8BB94FF440530B4A4B
:10697000596891420ED19B6880080022039001A8BB
:10698000CDE90123FFF754FC0DB05DF804FB0B9A31
:106990001344F1E74FF48053EEE700BFDBE5B1515C
:1069A00000B591B009A8FEF7D7FD0D9A1AB90020DD
:1069B00011B05DF804FB0C9B002B37D14FF4405312
:1069C0001F495868884234D19B68039303204FF4D1
:1069D0007421CDE90101920801A80492FFF728FC77
:1069E0000028E4D00C9B3BBB4FF44053144A596839
:1069F000914209BF9B684FF480535942C3F56A2204
:106A000016BF1946C1F30C014FF46922521A03EB69
:106A1000520307930D9B03214FF474229B0805A892
:106A2000CDE905120893FFF703FCC1E70F990B446A
:106A3000CBE74FF48053C8E70F9A1344E9E700BF50
:106A4000DBE5B15110B58CB005A8FEF785FD0898BF
:106A5000B8B10B9C00F58053A34214D94FF44053B6
:106A60009B6898421BD80F4BA4F5805203EA52034F
:106A70005900A0EB430201F5805104EB4300FFF7FE
:106A80000FFD0CB010BD800803224FF4805304901A
:106A900001A8CDE901230394FFF7CAFBF1E70E201B
:106AA000EFE700BF00F0FFFFA8DF7047AADF7047E5
:106AB000ADDF7047AEDF7047B0DF704762DF704711
:106AC0002DE9F0430E4695B00546002800F0F98008
:106AD000002900F0F6804B68002B00F0F2804FF6A2
:106AE000FF730380784B04AA03F1100C1746186853
:106AF0005968144603C4083363452246F7D141F26E
:106B000030530DF10A0138460293FFF7D7FF0446D0
:106B1000002840F0D2802A1D02A90120FFF7C4FFFF
:106B20000446002840F0C9809DF80A30AB71014648
:106B30001C220DA804F050FE9DF834300E9423F072
:106B40000C0343F00C038DF8343001AFAB798DF8B2
:106B50000E30214641F2325303223846CDE910442B
:106B6000CDE91244ADF80C3004F036FE9DF8063045
:106B700023F01F0343F00303214614224FF48859E6
:106B800008A88DF80630ADF8049004F025FEF42333
:106B9000ADF82C30A8880A940DF10C0805F1080313
:106BA00008AA0DA90C94CDE90887FFF77FFF0446DA
:106BB000002840F0828001461C220DA804F00CFE43
:106BC0009DF834300E9423F0180343F018038DF829
:106BD0003430AB798DF80E30214641F23153032227
:106BE0003846CDE91044CDE91244ADF80C3004F03C
:106BF000F3FD9DF80630ADF8049023F01F0343F039
:106C000013032146142208A88DF8063004F0E4FD91
:106C10001723ADF82C30A8880A9405F1100308AAB0
:106C20000DA90C94CDE90887FFF740FF0446002822
:106C300043D101461C220DA804F0CEFD9DF834304E
:106C40000E9443F002038DF83430AB798DF80E309A
:106C5000214641F2345303223846CDE91044CDE9B0
:106C60001244ADF80C3004F0B7FD1123ADF8043038
:106C70009DF8063023F01F0343F00303214614223E
:106C800008A88DF8063004F0A7FD02230A93ADF89A
:106C90002C30A8880C9605F1200308AA0DA9CDE98F
:106CA0000887FFF703FF044638B97368AB62B3681F
:106CB00003B1EB62054B01221A70204615B0BDE806
:106CC000F0830E24F9E700BFBCC00F006B970020D3
:106CD0002DE9F04F0E4687B00546002839D00288CE
:106CE0004FF6FF739A4236D01C4B1B789BB31C4C5B
:106CF000C1F30729C1F307480F0E4FF0100A07230D
:106D00004FF0010B1022002102A86370ADF806308D
:106D100084F800A084F802B0E67084F8049084F847
:106D20000580A77104F058FD2B8AADF808300023C8
:106D3000ADF80C3028888DF80AB00DF1060302A9D1
:106D4000CDE90434FFF7B6FE1328D8D007B0BDE86C
:106D5000F08F0E20FAE70820F8E700BF6B970020BD
:106D6000649700202DE9F04F0E4687B004460028B6
:106D700037D002884FF6FF739A4234D01B4B1B78F2
:106D80008BB31B4DC1F3072AC1F307494FEA1168C2
:106D90004FF0110B002705231022002102A8ADF8A7
:106DA000063085F800B06E7085F802A085F8039073
:106DB00085F8048004F010FD238AADF80830012323
:106DC0008DF80A302088ADF80C700DF1060302A989
:106DD000CDE90435FFF76EFE1328DCD007B0BDE81F
:106DE000F08F0E20FAE70820F8E700BF6B9700202D
:106DF000649700202DE9F0410F4686B01646044600
:106E000060B302884FF6FF739A4229D0154B1B7866
:106E100033B3154D4FF0100803231022002102A8B0
:106E2000ADF8063085F800806F70AE7004F0D4FCC9
:106E3000238AADF8083001238DF80A300023ADF81D
:106E40000C3020880DF1060302A9CDE90435FFF7C7
:106E500031FE1328E0D006B0BDE8F0810E20FAE73D
:106E60000820F8E76B9700206497002070B50D4666
:106E700088B0044650B149B1826A3AB10B88502BB0
:106E800049D005D8102B43D0112B54D008B070BD79
:106E9000512BFBD18E79022EF8D10A89038A9A42AE
:106EA000F4D18B7B043B022BF0D99DF816308DF882
:106EB000106043F001038DF816300B8AADF81830DE
:106EC0004B8AADF81A30082201F1140301A8002101
:106ED000079304F081FCA18A2088019601AACDF8CD
:106EE00008D0FFF7E5FD48B3E36A03B1984740F2E5
:106EF000FD132088ADF8143004A9FFF7DDFD00284C
:106F0000C4D0E36A002BC1D008B0BDE87040184778
:106F10008B882380BAE7C98803899942B6D10823B0
:106F20008DF81030123535F8023C8DF81830059583
:106F300004A99047AAE74FF6FF73EAE7BDF80030CF
:106F40002088DB07D3D5002604A9ADF81460FFF72D
:106F5000B3FD0028D5D1297D4B1E072B3ED8DFE895
:106F600003F004192226282A3B2C6B8A8DF8046032
:106F7000012B05D8062201212046FFF73BFFBEE783
:106F8000012315358DF80C300295A36A01A920461E
:106F900098477BE76A8A01239A428DF80430F0D83B
:106FA00006220221E8E702238DF80430EDE70323EF
:106FB000FAE70423F8E70523F6E76B8A022B02D8E9
:106FC00003220821D8E7B5F81530ADF80830002BBA
:106FD00014BF06230723E7E70923E5E70322CBE7EE
:106FE000A8DF7047AADF70472DE9F04180468EB0D8
:106FF00015461F460E4611B9084600F09BFD15B90F
:10700000284600F097FD1C220DEB0200002104F041
:10701000E3FB9DF81C30ADF80480002443F002032C
:107020008DF81C3021460123032268468DF8063076
:10703000CDE90A44CDE90C44089404F0CDFB3B783B
:107040008DF800307B788DF801309DF8023023F008
:107050001F0343F002032146142202A88DF80230D8
:1070600004F0BAFB0A48CDF80CD001AB029302AA97
:10707000149B0088ADF8105007A9ADF81240ADF888
:1070800014500696FFF7AEFF0EB0BDE8F08100BFCA
:107090008C97002030B587B041F60A032D4AADF831
:1070A0000C30044603A901208DF80E00FFF798FF6D
:1070B0000546D8B92288E2B922894AB1264B009305
:1070C000E16804F13C0342F62420FFF78DFFD8B9B4
:1070D000228C4AB1214B0093616A04F13C0342F6D1
:1070E0002620FFF781FF78B9A36B7BB9284607B04C
:1070F00030BD1B4B0093616804F13C0342F629202C
:10710000FFF772FF0028D7D00546EFE71A788DF811
:1071100010205A888DF81120120A8DF812209A88B2
:10712000DB888DF815301B0A8DF813208DF816308A
:10713000120A0C4B8DF814200093072204F13C0333
:1071400004A942F65020FFF74FFF002818BF05465C
:10715000CCE700BF8C9700207C970020749700201C
:10716000849700206C97002029DF704728DF704744
:10717000064B182202FB003000230422C0E904233E
:10718000037183608361C360704700BFA8970020CC
:1071900013B502460846C96843680093044B53F888
:1071A0002140436910F80C1BA04702B010BD00BF7E
:1071B0009897002070B51A4C2378182202FB0343DD
:1071C0000122A2701A795D69012A05D0032A1AD01A
:1071D0000F200023A37015E0124AD86816689A6839
:1071E0009969A2EB0632B2F5805F284401EB0631C3
:1071F00000EB063034BF92084FF48062FFF7B4FF13
:107200000028E6D170BD4FF080531B699BB2B5FBDF
:10721000F3F5044B18682844FFF7A8FFF0E700BF18
:10722000A89700209097002070B5134D6C78122C11
:107230001FD02E783444E4B2112C84BF123CE4B247
:10724000182606FB0454A261207103C9A360049BA5
:10725000E360AB7804F1100282E8030023B1002060
:107260006B7801336B7070BDFFF7A4FF1128F7D165
:10727000F5E70420F7E700BFA897002038B5831E84
:10728000012B45D8234CA378002B41D000230328A1
:107290002578A37036D02049182202FB05420B68DE
:1072A00092680133B2EB033F0B6019D86B1CDBB261
:1072B00062780020112B08604FF0180188BFA5F1FB
:1072C000110302F1FF3201FB0541D2B288BFDBB2EC
:1072D000043162702370FFF75BFF2846FFF748FF19
:1072E0006378ABB1A3789BB9FFF764FF80B1112835
:1072F0000ED02178182303FB01410431BDE838404A
:10730000FFF746BF182303FB054104310D20F5E7C5
:1073100038BD00BFA89700209097002008B50A4B01
:1073200000211960094B1980997008460131FFF757
:107330001FFF1229F9D1064B00201860054BC3E945
:107340000000C3E9020008BD90970020A897002024
:107350009497002098970020064A03461068042856
:1073600007D00860411C11601A68034B43F82020C5
:1073700000207047949700209897002013B55C1860
:107380000C43A40708D1009313460A460146012086
:10739000FFF74AFF02B010BD1020FBE707B500223F
:1073A0000B46009201460320FFF73EFF03B05DF855
:1073B00004FB0000094B5A7899780132D2B291420D
:1073C00008BF0022197891421FBF02705A78182115
:1073D00001FB023014BF0430002070477099002078
:1073E000082910B5044602D0002000F0A3FBD4E920
:1073F0000030BDE81040184773B5054600240DF174
:1074000007000E468DF8074000F0A2FB0DF10600C4
:10741000FFF7D0FF90B10670094B9DF8062045603C
:107420005A709DF8070000F0B7FB24B9054B4FF4E4
:107430008012C3F80021204602B070BD0424F0E79A
:107440007099002000E100E0204B21491A682F23A9
:1074500000BF00BF00BF00BF00BF00BF00BF00BF34
:107460008A422FD000BF00BF00BF00BF00BF00BFD7
:1074700000BF00BF00BF00BF00BF00BF00BF00BF14
:1074800000BF00BF00BF00BF00BF00BF00BF00BF04
:1074900000BF00BF00BF00BF00BF00BF00BF00BFF4
:1074A00000BF00BF00BF00BF00BF00BF00BF00BFE4
:1074B00000BF00BF00BF00BF00BF00BF00BF00BFD4
:1074C00000BF00BF013BC3D1704700BF0880002050
:1074D0000024F4000C4B0D484FF4003210B5C3F8F3
:1074E000802001244FF48033C0F84833C0F80833BB
:1074F0004460FFF7A9FF064B846000201860FFF787
:10750000A3FF044B187010BD00E100E00010014023
:10751000689900205D9900202DE9F3412549264B0B
:107520000025C1F84051C1F84451C1F84851C1F893
:107530004C51C1F80051C1F804511B68002B34D0E4
:10754000D1F804451D49DFF888800968641A24F0E1
:107550007F442F461A68A24212D8A41A15441A7CF6
:10756000DE6962B15A691F7400929B6901934246B9
:107570000821684600F046FA08B100F0DBFABEB90F
:107580000F4A104B11781B788B4205D10133DBB2C7
:10759000022B08BF0023137012780B4B43F82250C4
:1075A0000A4B4FF48012C3F8002102B0BDE8F0810D
:1075B0003346CFE7001001406C9900206899002005
:1075C0005E9900205F9900206099002000E100E0B2
:1075D000E1730F002DE9F74FA049A14A0B7812780B
:1075E000A04C9A423CD00133DBB2022B08BF0023EF
:1075F0009D4A0B709D49176851F823003B1823F0F2
:107600007F4313600022236816461546944613B93B
:1076100042B1236006E0196881420FD902B12360AC
:10762000091A19604FF0010A2368DFF858820093A5
:107630004FF00009BEB94FF0180B45E0401A0D4459
:10764000D968D3F81CE0C3F800C031B17A1922F030
:107650007F42C3E90121DE611E4673460122D6E75F
:107660000026B246E0E73046F6697F4B45681A6867
:107670007F4F8368A91A21F07F41B94200F2CA8086
:107680000B4401210174216803600022C0E901223A
:10769000C261002940F0C6802060CBE798F8020064
:1076A00025684B1CDBB20BFB0181984208BF00230D
:1076B00088F800300B798868022B67D0032B00F024
:1076C0009380012B00F0938098F8001098F8013017
:1076D0008B42E3D12368B9F1000F05D1009A9A4299
:1076E00002D1BAF1000F42D0002B00F0B480D3F8E1
:1076F0000090604C5C4BD4F8046518685E4F351AF6
:107700003B7825F07F4503359BB94FF48033C4F8AF
:107710004433C4F80433594B4FF400324FF001089E
:10772000C3F880211A60C4F80080FFF78DFE87F847
:107730000080A9452CBF4844401920F07F40C4F880
:107740004005D4F804359B1B23F07F43801B033393
:1077500020F07F4083420AD9D4F80435C4F840357C
:10776000FFF772FE454B4FF40032C3F80021444B43
:1077700000221A7003B0BDE8F08FB84209D0394634
:10778000FF69002FF9D1002303749DE72F46294696
:10779000F7E7884211D1EB69236073B9DFF8D4E0D1
:1077A00001910122CEF80820DFF8BCE0CEF80030CD
:1077B000334B1A70FFF748FE01993B68FF69CF61B0
:1077C00017B13A6813443B602368AB4218BF4FF0CF
:1077D0000109D8E72974ED690123002DFAD1002BA6
:1077E0003FF472AF25606FE700231946F5E7057C8B
:1077F000002D7FF469AFCA6842600B6983604B69F2
:10780000C3608B6983611E4B1B78002B18BF2A460F
:1078100042602AE7521B22F07F429A4234BF9B1AF1
:1078200000232EE70A689A4213D3D21A0A60C16174
:1078300032E75B1BD56911463DB12A461568AB425C
:10784000F7D8ED1A156015460A460360C561D06188
:10785000F0E60A46F2E7FFF73DFE88E75F99002071
:107860005E9900206C9900206899002060990020A2
:10787000FEFF7F00001001405D99002000E100E064
:107880005C9900207099002008B5FFF723FE104B8B
:1078900000200B2218809A700E4B18600E4B187047
:1078A0000E4B18700E4B4FF48012E021C3F880216C
:1078B00083F814131A6002F18042A2F56F22C2F815
:1078C000080583F81113074BD2F804251A6008BD88
:1078D000709900206C9900205F9900205E9900202B
:1078E00000E100E068990020074B9B784BB132B172
:1078F00028B10368187C20B959745A617047072071
:1079000070470820704700BF709900202DE9F743A9
:10791000DFF8848098F8023005460E461746ABB370
:10792000A0B3042930D9436983B3437C0024012BDD
:107930000DF107000CBF8946A1468DF8074000F005
:1079400007F90DF10600FFF735FDD8B101230370EB
:107950000F4B4560D3F80435C0E90497C0E90236FF
:107960009DF8063088F801309DF8070000F014F902
:1079700024B9084B4FF48012C3F80021204603B00D
:10798000BDE8F0830424EFE70724F7E70824F5E7D0
:107990000010014000E100E070990020064A927852
:1079A0003AB130B1426922B1002202740221FFF7DC
:1079B00023BD0820704700BF709900204B1C30B5D4
:1079C000DB00044612F003009BB20DD1074D2A6084
:1079D0001A44074B1A60074B1870074B1870074B77
:1079E0001C80074B198030BD0720FCE7889A0020D7
:1079F000849A0020809A0020819A00207E9A00209C
:107A00007C9A00202DE9F347DFF8C480B8F80030F5
:107A10008B4206460D4617464DD300240DF1070054
:107A20008DF8074000F094F8254B264A26481B782D
:107A3000008892F800C084455FFA8CF138BF0131AC
:107A4000DBB238BFCCB2A3422FD014781178CBB2BE
:107A5000884286BF0133DBB20023E4B213709DF885
:107A6000070000F099F84FF6FF739C4225D0DFF82D
:107A70006490D9F800304FEAC40A43F8347003EB3D
:107A8000C402AEB1A5B1114BB8F800001B682A467C
:107A900004FB0030314603F071FFD9F80030534445
:107AA0009D80002002B0BDE8F0874FF6FF74D6E756
:107AB00000239380F5E70920F4E70420F2E700BFF4
:107AC000819A0020809A00207C9A0020849A0020CD
:107AD0007E9A0020889A002070B5104C104D2278B4
:107AE0002B789A4200D170BD0E480F4A2378126855
:107AF00006880E4802EBC301006852F833208988DB
:107B000003FB060090470A4922780988D3B29142C4
:107B100086BF0133DBB200232370E0E7819A0020A7
:107B2000809A00207E9A0020889A0020849A002063
:107B30007C9A00201FB50021CDE9021001AA44F271
:107B40000100ADF80410FCF725FD05B05DF804FB5D
:107B500070B5EFF3108672B60C4A9468012384B9AD
:107B600093600B4B0B4DD3F8801029401160C3F884
:107B70008050D3F8841051604FF0FF32C3F8842056
:107B80002346037006B962B670BD00BF8C9A002010
:107B900000E100E0FC06FFBD10B5084B9A685AB141
:107BA00050B9EFF3108172B6054A1C6814605C6826
:107BB0005460986001B962B610BD00BF8C9A002075
:107BC00000E100E003462AB110881A4619448A42AF
:107BD00003D170474FF6FF70F7E743BA12F8010B75
:107BE0009BB25840C0F3031343401BB283EA0333F4
:107BF0001BB2580100F4FF50434098B2E7E7000081
:107C0000064B074A00201870064B1A601022C3E981
:107C10000120C3E90300C3E90500704774C00020D8
:107C2000B49A0020989A00200020704730B504468E
:107C3000E9B1124B5A6800200860D2B1B4F5167F42
:107C400019D8013A5A60DA681C680132DA601A6998
:107C50004FF4177505FB02440C60996901249440A8
:107C60000132214302F00F0299611A6130BD0E20EA
:107C7000FCE70420FAE70C20F8E700BF989A002000
:107C8000F0B51C498A6892B34D690E68AC1A04F0CD
:107C90000F0423464FF4177707FB036C604510D1A0
:107CA000886901259D406840886100204E68D1F8B0
:107CB00018C04FF0010E73440025164403F00F0363
:107CC0000AE0013303F00F039D42E5D11020EDE7F8
:107CD0004AB1013A1C4601250EFA04F414EA0C0FCD
:107CE000A6EB0207F4D00DB1C1E90172F0BD04208A
:107CF000FCE700BF989A0020064A13691268013B0E
:107D00004FF4177103F00F0301FB0323C3F858026C
:107D100000207047989A002030B5C0B1B9B10E4B21
:107D2000DA68B2B1013ADA609A681C6801329A6086
:107D30005A694FF4177505FB024404600132D4F808
:107D40005802086002F00F025A61002030BD0E2078
:107D5000FCE70420FAE700BF989A00203FB40C49E2
:107D6000086890B10B4B1C687CB10B4A1568CDE9D3
:107D7000025000238DF804300B60136004AB13E94C
:107D80000700234604B030BC184704B030BC70472D
:107D900078C0002090C0002080C00020DC2810B5F2
:107DA00009D0DD2810D0C02816D1FFF7D7FF0E4B21
:107DB0000E4A1A6010BD0E4A0E4B19681368581C03
:107DC0001060C022CA54F2E7094A0A4B19681368C6
:107DD000581C1060DB22F5E7064B054A196813684A
:107DE0005C1CC8541460E2E71C8000200D7E0F006C
:107DF00078C0002080C00020C02802BF014B024A8A
:107E00001A6070471C8000200D7E0F00C02810B43F
:107E100009D0DB280BD0094B094A196813685C1C90
:107E2000C854146006E05DF8044BFFF797BF054B9C
:107E3000054A1A605DF8044B704700BF80C00020FF
:107E400078C000201C8000209D7D0F0007B5012216
:107E50008DF807000DF10701002002F063FDB0FA74
:107E600080F04009800003B05DF804FB10B5064ABD
:107E7000064C12682368D05CFFF7E8FF10B923684E
:107E80000133236010BD00BF8CC0002084C00020DF
:107E900008B5C020FFF7DAFF28B9034B1B6813B9F8
:107EA000024B034A1A6008BD84C0002018800020DD
:107EB0006D7E0F0008B5DB20FFF7C8FF10B9024B3D
:107EC000024A1A6008BD00BF18800020D17E0F0052
:107ED00010B50C4A0C4C12682368D35CC02B03D03D
:107EE000DB2B0DD0042010BDDC20FFF7AFFF0028F6
:107EF000F9D12368054A01332360054B1A60F2E784
:107F0000DD20F2E78CC0002084C000206D7E0F00D1
:107F1000188000207FB5184C184D194E002002F033
:107F2000A1FC30B322689AB12968336899420FD214
:107F3000012201A9002002F0A1FC10B94FF0FF308E
:107F400001E09DF804000F4BC0B21B689847E5E7BD
:107F50000D4B1B686BB10292084A02211268039212
:107F60008DF8041004AA12E9070004B0BDE87040BF
:107F7000184704B070BD00BF80C0002078C000204A
:107F80007CC000201C80002090C00020014B1860A5
:107F90000020704790C00020034B1A780AB90122D4
:107FA0001A700020704700BF94C00020014B0020D1
:107FB0001870704794C000202DE9F04F85B000285C
:107FC0004ED0284F3B78012B06D0022B0CBF04204B
:107FD000082005B0BDE8F08F234CDFF89C90234EBD
:107FE000234DDFF89880DFF898A0DFF898B0C9F843
:107FF000001000232360022330603B70C5F800802E
:108000002268D9F800309A4214D3C5F80080FFF7EF
:108010003FFF18BB174B1B6801223A70F3B18DF874
:108020000420326802922268039204AA12E907002F
:10803000984713E0336822689A5CC02A03D022680C
:108040009B5CDB2B04D12B68534508BFC5F800B0FF
:108050002B689847042801D01128D1D10020B8E717
:108060001020B6E794C0002084C000208CC00020FF
:108070001880002090C0002088C00020917E0F0052
:108080006D7E0F00B57E0F00054B064A1860064B4B
:108090001960064B00201860054B1A60704700BF3E
:1080A00080C00020F97D0F007CC0002078C0002037
:1080B0001C800020064B07481B68DB00DBB2002257
:1080C000037004215B4242708270C370FFF774BF7B
:1080D000D4C0002095C0002010B52A4C0246237859
:1080E000012B11D0022B1DD00BBB02BB2648FFF782
:1080F00055FC08B1FFF71EFD244B1B68BBB1244A99
:10810000BDE8104010781847012A10D1214B19689A
:10811000214B06311868FFF74FFF08B1FFF70AFD42
:1081200002230CE0022A1AD0032A01D052B110BD5A
:108130001A4A1368013303F0070313600023237006
:108140000022CCE7164B10481A6041F67F21FFF75A
:10815000DDFB0028EBD0BDE81040FFF7EBBC104A78
:108160001368052B0AD0013313600A4B19680A4BB8
:10817000BDE8104018680631FFF71EBF044B01220E
:108180001A70DBE7E4C00020A4C00020E0C000209B
:108190009EC00020C8C00020CCC00020D0C000205D
:1081A000A0C00020F0B585B004AB03E907009DF83E
:1081B00004000D461646032876D8DFE800F00802D2
:1081C000A8AB012005B0BDE8F040FFF785BF032A4A
:1081D000524C40F283804B7813F00F0269D00E2A84
:1081E0007CD1042E59D00A78500656D5110654D5A4
:1081F0001A44AB781A44EB781A4412F0FF024CD1BF
:10820000B71E39462846FFF7DDFCEB5B834244D1BD
:1082100043492A780B6802F00702D8B282422FD174
:10822000013303F007030B60FFF744FF3D4B0122CE
:1082300030461A70FFF760FD08B1FFF77BFC374945
:108240004FF41670FFF7F2FCB0B1042810D1364895
:108250000521FFF719FF08B1FFF76CFC334B1B68D2
:10826000002B59D04FF0000005B0BDE8F040184792
:108270000020FFF75FFCEAE720684FF41671E8E79B
:1082800020684FF41671FFF7FFFE08B1FFF752FCAC
:1082900005B0BDE8F040FFF70DBF20684FF4167140
:1082A000FFF7F2FE002837D005B0BDE8F040FFF739
:1082B00041BC0A78897813440B44E9780B44DBB25B
:1082C00063B91B4B1B68013383EAD20313F0070326
:1082D00004D1184A03201370FFF7FEFE25681DB174
:1082E0004FF416712846DBE70C494FF41670FFF780
:1082F0009DFC18B920684FF41671D1E7042802D10B
:1083000009480521CCE72846FFF714FCF8E70648A2
:108310000521C5E70320C7E705B0F0BDD8C00020A0
:10832000D4C00020C4C0002099C00020DCC00020C0
:10833000D0C000209EC000200220FFF7CDBE00006C
:10834000074B10B5044618600648FFF71FFE08B13A
:10835000FFF7F0FB002C0CBF0E20002010BD00BF6B
:10836000DCC00020A5810F00184A1948002310B571
:108370001360184A1360184A1360184A1370184A99
:108380001370184B184A01211960184B1960184BCB
:108390001970FFF7A9FA08B1032010BDFFF730FCF0
:1083A0000028FAD1FFF7F8FD0028F6D1114C4FF460
:1083B00016702146FFF73AFC0028EDD120684FF4F3
:1083C0001671BDE81040FFF75FBE00BFCCC00020B3
:1083D000CCC00F00C8C00020A0C00020C4C0002036
:1083E000E4C00020D4C0002039830F00D0C000209A
:1083F0009EC00020D8C000200C4A08B5002313609E
:108400000B4A1360FFF710FC08B1FFF793FBFFF76F
:10841000CDFD08B1FFF78EFB0648FFF7BFFA042831
:1084200002D10020FFF786FB002008BDE0C000203D
:10843000DCC00020A4C0002037B50D46044698B12A
:1084400091B10A4B19780022019259B101A91A7011
:10845000FFF762FC019B063B2B80236804332360FB
:1084600003B030BD0420FBE70E20F9E7C4C00020B4
:108470000438FFF705BC000000487047E580002085
:10848000044B054A1878054B00280CBF10461846C7
:10849000704700BF79C10020838000203880002011
:1084A0002DE9FF411E4B187020B11E4B2A229A72F3
:1084B0000022DA721C4A1D4DDFF878C017461C4BAB
:1084C000EE4603F11006744618685968F046A8E8AD
:1084D00003000833B342C646F6D12B7803F00F03EE
:1084E00010336B4413F8103CD373114B1868596860
:1084F000A646AEE803000833B3427446F6D115F839
:10850000013B04A901EB1313654513F8103C937369
:10851000A2F10202D3D100233B7404B0BDE8F08184
:1085200079C10020E580002068C1002060000010B3
:108530005DC00F006800001010B570B9134B1448EF
:108540001968022203F01AFA01230133DBB2114841
:108550005B0043F44073038010BD052813D80B4B18
:1085600053F82040204603F0CBF8C3B21F2B28BF9E
:108570001F23084A2046E1188842E6D010F8014B34
:1085800022F8024FF8E70020E6E700BF2080002035
:10859000E8C00020E6C0002018DF7047F0B51D4697
:1085A000154B87B018680F4659681B7A03AC03C493
:1085B0002370124B18685968114B009301AC03C427
:1085C0002046164603F09CF821460246384603F042
:1085D000D5F901A803F094F801A90246304603F04A
:1085E000CDF9684603F08CF869460246284603F048
:1085F000C5F907B0F0BD00BF81C00F0079C00F0002
:10860000312E30000120704710B51C460B781E2B10
:1086100006D000232022052102F0CAFB204610BD0F
:108620000024FBE7F8B5069F14460D463A460021A4
:1086300018461E4603F0D0F87CB14FF0E023D3F883
:10864000F03DDB0700D500BE4FF0FF30F8BD2846F7
:1086500000F008F9013504F50074BC4206EB040192
:10866000F5D32046F2E70000F8B50A4F0D461E4646
:108670000024069B9C4206EB040101D32046F8BD72
:108680003A46284600F0BCF90028F7D0013504F539
:108690000074EEE77CC1002030B52B4D2A7A8DB0F6
:1086A000CAB106AC18220021204603F095F8062531
:1086B00000238DF818508DF82C300CAB13E9030013
:1086C0008DE8030094E80F00FCF7CCFD0620FCF7D2
:1086D000EDFA0DB030BD2B68002BFAD01B4B19788A
:1086E00019B105201A70FCF7E1FAD5E900329A4277
:1086F000EFD306AC18220021204603F06DF86B7A08
:10870000F3B1062300254FF420424FF474214FF4B7
:1087100060208DF818308DF82C5003F0E1F9002816
:10872000CBD01022294602A803F056F84FF460225D
:108730004FF4205302A8CDE90323FFF72DFFBCE738
:108740008DF81830B9E700BF7CC10020F780002009
:10875000024B0B604FF40073138070470901010056
:10876000012070477FB52F492F4802F0CFFE4FF40C
:1087700040532E4A596891424CD11A78102A46D952
:10878000142A186944D95B69294CB3FBF4F50A2211
:1087900001A904FB153402F0ADFF2649224802F07E
:1087A000B5FE01A9204802F0B1FE23491E4802F09F
:1087B000ADFE0A2201A9284602F09CFF01A91A4831
:1087C00002F0A4FE1D49184802F0A0FE4FF47A768C
:1087D0000A2201A9B4FBF6F5284602F08BFF01A995
:1087E000114802F093FE15490F4802F08FFE0A224D
:1087F00001A906FB154002F07DFF01A90A4802F01D
:1088000085FE0F49084802F081FE04B070BD0020CB
:108810000023B9E70B49044804B0BDE8704002F0FA
:1088200075BE00BF8AC00F00F8800020DBE5B151A3
:1088300040420F0097C00F0095C00F0099C00F0075
:10884000A4C00F009BC00F0010B503461C1AA24223
:1088500000DC10BD0C781CB1013103F8014BF5E7C9
:108860002024FAE72DE9F0410C4605464FF400724A
:108870000021204602F0B0FF65B95A493E22204649
:1088800003F07CF8552384F8FE31AA2384F8FF31E5
:10889000BDE8F081B5F5017F29D86B1EB3F5817F66
:1088A00024BF6FF4817805EB08034BB9F8222270DE
:1088B00004F109012246FF2002F8010F8A42FBD190
:1088C0001B02002240F69360191FB1F5696F03F196
:1088D000010106D2834214BF8BB24FF6FF7324F816
:1088E00012300132B2F5807F0B46EDD1D0E7B5F5FD
:1088F000027F3BD86FF4017C65443DB920463A497C
:108900000B22FFF7A1FF2823E3722034374B2E01FF
:108910004FF0000803EB05256FF00D07022EB7D8C6
:108920000B2229462046FFF78FFF5C23682279211E
:108930006374E3746376B31C84F80D80A773E173EA
:108940002274A27484F8148084F81580A775E175E8
:1089500022766383E86830B102F0D2FEE06101362E
:1089600020341035DAE74FF4E910F7E7204B9D4249
:108970008ED86FF40277EA19012A0DD81B4B03EB4E
:108980000213DD68284602F0BBFE29460246204657
:10899000BDE8F04102F0F2BF6FF4FD76A9190902BB
:1089A000B1F5801FBFF474AF124B236003F1144381
:1089B00003F52C1303F6023363600F4BC4F8FC314C
:1089C0004FF46963A3614FF40053A5F20B254FF4F4
:1089D0008072A360094B6561E1602261E36104F18B
:1089E0002000D5E7D2C00F00FDC00F0010C10F005E
:1089F000080101005546320A306FB10A29009A2356
:108A0000F7B5644B14460A689A420D4608D103F143
:108A100014434A6803F52C1303F602339A4203D039
:108A20004FF0FF3003B0F0BDD1F8FC215A4B9A4211
:108A3000F6D18B6823F4FF5323F01E039B049B0C99
:108A4000B3F5005FECD10B69B3F5807FE8D1C8685E
:108A500010F0FF06E4D1CB69504A934205D0504A4A
:108A6000934243D04F4A9342DAD1A0F58053B3F5F5
:108A7000692F07D201234FF4807205F12001FBF723
:108A80000DFD02E0B0F5805FCAD2AB695BB322682E
:108A9000934207D041F263018B4200D80AB14FF0F4
:108AA000FF3323606B6941F2630293421BD803F0EA
:108AB000070204EBD303012191401A7B1142C8B293
:108AC00004D16168024301311A736160D4E9003254
:108AD0009A4208D30120FBF7C3FC637A1BB1A37A47
:108AE0000BB9012323724FF400709BE701276772D3
:108AF000CB68B3F1102F17D104223431684602F04D
:108B00003DFF042205F138010DEB020002F036FFB3
:108B1000009BB3F5742F03D1019BB3F57E2F01D0D9
:108B200027727DE7A772B0E7A3F57422B2F5204F54
:108B300028D2E27A01F12007DAB91B4A934218D30E
:108B40002B69B34215D90422B919684602F016FF01
:108B5000009BD02B14D10422311D0DEB02003944AF
:108B600002F00CFF0F4B019A9A424FF001030ED115
:108B7000E372E8682A6901233946A0F5A0307EE750
:108B80000836DDE7B3F5805FFFF47FAF0123237282
:108B900046E700BF5546320A306FB10A4028A5ADFE
:108BA0003C8263D629009A2300D80F004DDF70471E
:108BB0004EDF70474FDF704750DF704712DF70475E
:108BC00000F09CBC002000F007BB00001FB5244B48
:108BD000402283F8272300238DF807304FF44053B9
:108BE00004465A681F4B9A4227D10DF10700FFF740
:108BF000E5FF9DF8073003B30120FFF7D9FF0120FF
:108C0000FFF7D4FF0120FFF7D5FF02A8FFF7D4FF3D
:108C1000029BDA0702D5002000F070FC029B9B0744
:108C200002D5022000F06AFC2046FFF739FCFFF76E
:108C300099FD02F0FDFB04B010BD002301A88DF8E2
:108C40000430FCF781F8084B039303A8FCF7A4F861
:108C5000FCF7A8F84FF08043D3F838340293D7E7F5
:108C600000E100E0DBE5B151C18B0F00012000F015
:108C700045BC0120FCF71AB80220FCF717B84FF0EA
:108C80008053D3F83001082802D1D3F8343123B906
:108C9000A0F10D0358425841704701207047000071
:108CA000094B012283F8D8200260BFF36F8FBFF316
:108CB0004F8F064A904202D0043A904202D10022DD
:108CC00083F8D820704700BF98C30020507002403E
:108CD00042DF704743DF704744DF704712DF704761
:108CE00007B54FF4405300205A68084B9A420AD106
:108CF0008DF807000DF10700FFF7F0FF9DF8070062
:108D0000003818BF012003B05DF804FBDBE5B1516A
:108D100007B5FFF7E5FF58B1002301A80193FFF75E
:108D2000DBFF0198003818BF012003B05DF804FB99
:108D30004FF08043D3F80C0400F00110A0F10113B0
:108D400058425841F1E7000010B5134B134A5B68D5
:108D5000C3F3080383B9EFF310836BB910494B6871
:108D60001B0609D58024C1F8844092F8D8308BB90D
:108D7000FFF796FF4C6010BD92F8D83033B1014632
:108D8000BDE810400748012201F079B8BDE8104065
:108D9000FFF786BF4C60E6E700ED00E098C30020D7
:108DA00000E100E0498D0F000D4B182202FB00335B
:108DB000598A1A8A521A998A92B28A4228BF0A4656
:108DC000D9681423434303F1804303F51C33C3F8EC
:108DD0000016C3F80426034B03EB8000FFF7B4BF73
:108DE00098C3002004700240074BD3F8C024D1037D
:108DF00009D406490648D1F8C010C3F8A017C3F833
:108E0000A427FFF7A1BF70470070024098C300205D
:108E100048700240082870B402D170BCFFF7E4BF6C
:108E20000F4D104A00F594731821414352F8234026
:108E30006B18A4B2DE889B8869589B1B9BB2A34227
:108E400028BF2346142404FB0022C2F80017C2F8EE
:108E50000437054B70BC03EB8000FFF775BF00BF04
:108E600098C3002000700240287002407047000044
:108E7000014B80225A60704700E100E0024B8022E3
:108E8000C3F88420704700BF00E100E0074BD3F82F
:108E90000014D3F800240A43C3F800240022C3F8C6
:108EA00058214FF48002C3F8042370470070024039
:108EB00070B58878404D00F07F0318220C26C40955
:108EC0005A4306FB04228E882A44C6F30A061681FA
:108ED000CA7802F00302012A29D00121374A01FA97
:108EE00003F5D4B903F10C06B140C2F80413D2F86B
:108EF000141503F594732943C2F8141542F823405E
:108F00002E4BC3F8180540F48070C3F80C05BFF36E
:108F10006F8FBFF34F8F012013E002339940C2F8E7
:108F20000413D2F810352B43C2F81035E8E7082BAC
:108F300008D04FF0E023D3F8F03DDB0700D500BEAA
:108F4000002070BD1D4BDCB9B5F8D42012B18022D1
:108F5000C3F81C250022C3F85021D3F8002312F4D3
:108F6000001208BFC3F85421144B4FF44012C3F849
:108F70000423D3F8142542F48072C3F81425BFE704
:108F80000022C3F82C21B5F8C82012B18022C3F802
:108F90001C25D3F8002312F4001208BFC3F8542193
:108FA000064B074AC3F80423D3F8102542F4807215
:108FB000C3F81025A4E700BF98C30020007002404A
:108FC000000820002DE9F8431D4B1E4DDFF880807E
:108FD00080220124C3F88420274604F10C03A21C3C
:108FE00007FA02F207FA03F31343C5F80833A300A4
:108FF00003F1804303F51C3300264FF018095E602F
:1090000009FB04809E624A463146013402F0E4FBCB
:10901000082CE2D10C4BC5F808334A46C5F81C654C
:109020000A486E623146AE6402F0D6FB044BC5F8C6
:1090300014758022C5F810755A60BDE8F88300BF2A
:1090400000E100E0007002400008300058C4002039
:1090500098C30020F7B51F4601F07F0018231F4C6E
:10906000CD090E4643430C2101FB053104EB010CF5
:1090700062500022ACF80470ACF8062020BBF7B9AF
:10908000174BD3F88034C3F3C0139D4217D0154853
:10909000FFF75AFE144B5B68C3F30803003B18BF8D
:1090A000012300933A463B463146384600F0D0FE55
:1090B000012003B0F0BD0D48FFF746FEF8E7002D94
:1090C000F9D0FFF771FEF3E7002DFAD11C44A37A23
:1090D000002BEDD0A572FFF79DFEE9E798C30020B5
:1090E000007002405070024000ED00E04C70024001
:1090F00011F07F0008B507D10D4B01225A65BFF36F
:109100006F8FBFF34F8F08BD0828F8D0084B41F48C
:109110008072C909C3F81825F1D1064B182202FB49
:1091200000339A7A002AEAD09972FFF773FEE6E7D5
:109130000070024098C3002011F0770F12D00A4B44
:1091400041F48072C3F80C15C3F80C25CA09C3F8A2
:10915000181504BF01F5947143F82120BFF36F8FF8
:10916000BFF34F8F704700BF00700240174B0122C2
:10917000002110B5C3F81425C3F810250A468B004A
:1091800003F1804303F51C33013108295A609A62C8
:10919000F5D10E4B0E4C5A629A64C3F85821D3F89D
:1091A0000014D3F800240A43C3F80024D3F80023A2
:1091B000C3F80823074AC3F804230021DC22204611
:1091C00002F00AFB4023A382238110BD00700240FD
:1091D00098C300200514C0012DE9F04FB34BB44AE9
:1091E000D3F80013002385B01C4601201D4621FA48
:1091F00003F6F6070BD552F8236046B100FA03F6E2
:10920000344342F82350BFF36F8FBFF34F8F0133C6
:10921000192BECD1E20706D5FFF7A8FF00210122A8
:10922000084600F0E6FD14F4006FA24D08D09F4BF5
:10923000D3F8A8369BB2A5F8D230012385F8D730F1
:10924000A30221D5994ED6F8143513F4807302D0B9
:10925000FFF7CAFD0123D6F81025D70540F11A8182
:1092600095F8D7305BB1B5F8D2200023012185F8FD
:10927000D73092B200911846882100F0E9FD012212
:109280000321002000F0A2FD600228D5874BD3F80F
:10929000006406F4E062F105C3F8002406D501225B
:1092A000C3F82C250421002000F090FD72050FD595
:1092B0007E4B0122C3F808259A65D3F8002312F4E7
:1092C000001208BFC3F854214FF40012C3F804235E
:1092D000B30504D501220521002000F077FD270207
:1092E0002BD5724BD3F88014C9B28DF80810D3F87F
:1092F0008424D2B28DF80920D3F888048DF80A00AE
:10930000D3F88C048DF80B00D3F890048DF80C0082
:10931000D3F894048DF80D00D3F898048DF80E005E
:10932000D3F89C348DF80F304E0601D1052A04D0B5
:10933000012202A9002000F072FD5F4B23405BB1C7
:1093400095F8D830002B40F0AD804FF0E023D3F8F3
:10935000F03DD80700D500BEDFF85891DFF84CA1EA
:109360004F4600264FF0140B4FF0180806F10C037F
:1093700024FA03F3D90720D50BFB06A33A68D3F8E8
:10938000083708FB065152FA83F23A60CA88DBB20A
:1093900013FA82F292B2082ECA8000F093803A89C2
:1093A0009A4240F08F80CB88BA889BB29A4240F2B2
:1093B000898016B94148FFF7C7FC0136092E07F12D
:1093C0001807D3D13E4B2340002B60D0374BD3F846
:1093D0006CA4C3F86CA4BFF36F8FBFF34F8F14F46A
:1093E00080641CBFD3F88044D3F88074DFF8C48055
:1093F0001DBF87F08007C4F3C014C7F3C01727460A
:1094000000264FF0180B2AFA06F3DA0701D4EEB95A
:10941000E4B1264B142202FB0633D8F80C20D3F813
:10942000083652FA83F2C8F80C200BFB0652F0B251
:10943000518A89B251FA83F39BB25382538AB8F8A6
:1094400010109BB299424BD9FFF7AEFC0136082EA3
:1094500008F11808D7D1002418264FF0010804F1AC
:1094600010032AFA03F3DB0701D45CB957B106FBFA
:109470000452B9F80410D3889BB299423BD9E0B2A8
:10948000FFF7C8FC0134082C09F11809E7D105B031
:10949000BDE8F08F002B7FF4F2AE4FF40013C6F856
:1094A0000833ECE6002385F8D83055E70070024019
:1094B0000071024098C30020FCFB1F004C7002406A
:1094C0000004000108FB0653F1B2DA88BA80DA889A
:1094D00001230093002392B2184600F0B9FC6CE718
:1094E000528A01230093002340F0800192B2184673
:1094F00000F0AEFCAAE782F80A80C3E7012813B5A2
:10950000044600F0C380022859D0002855D1784B7A
:10951000D3F80025002A50D14FF48002C3F8082365
:109520004FF40062C3F80024BFF36F8FBFF34F8F77
:10953000FFF7A5FB60B16F4BD3F8001C032269BB9A
:1095400049F27531C3F8001CC3F8142DC3F8001C90
:109550004FF08053D3F83031082B0CD1654BD3F842
:10956000001CC022E9B949F27531C3F8001CC3F8E8
:10957000142CC3F8001C5E4B0124C3F80045BFF354
:109580006F8FBFF34F8FFFF7C3FBB0B9FFF7A8FB97
:1095900050B102B0BDE81040FFF79ABBC3F8142DDC
:1095A000D6E7C3F8142CE6E74FF08043C3F8000178
:1095B000D3F800210192019A1C6002B010BD4C4CFE
:1095C000D4F804351BB1FFF7A3FB0028F5D1D4F87C
:1095D00000341B05FBD54FF40063C4F80034BFF31F
:1095E0006F8FBFF34F8F4FF08053D3F83031082B7C
:1095F0000CD1404BD3F8001C00293FD149F2753201
:10960000C3F8002CC3F8141CC3F8002CFFF737FB79
:1096100058B1384BD3F8001CA1BB49F27532C3F8DE
:10962000002CC3F8141DC3F8002C4FF08053D3F85E
:109630003031082B2E4B0AD140F2E372C3F80028D8
:109640004022C3F80428BFF36F8FBFF34F8F8022EF
:109650000121C3F81C25C3F80413274BC3F8842148
:109660005A60FFF755FB0028FBD0214B0122C3F8BD
:109670000425BFF36F8FBFF34F8F9EE70022C3F81F
:10968000142CC3E70022C3F8142DCEE7184BD3F8EF
:109690000025002A91D00022C3F80425BFF36F8F64
:1096A000BFF34F8F14498020C1F88400D3F8001312
:1096B000C3F80813C3F80025BFF36F8FBFF34F8FB4
:1096C000FFF70EFB78B1FFF705FB0C4B5A68C2F3AE
:1096D0000802003A18BF01220221002002B0BDE8B2
:1096E000104000F073BB4FF080435C60EDE700BFBB
:1096F0000070024000E0064000E100E000ED00E004
:109700000A44034690B2884202D39A89824202D226
:109710005B89184480B2704782888A4210B504D8A9
:1097200084898B1A9BB29C4203D243891A44891ABA
:109730008BB2038210BD930813B501EB830304467B
:1097400099420BD112F0030206D0002301A8019325
:1097500002F014F9019B236002B010BD51F8040B14
:109760002060EDE72DE9F347BDF82850AB42A3EBAD
:1097700005068846194638BF4389B6B23CBFF31A7E
:109780009EB28388B3420746144604D2FFF7C4FF53
:10979000058A8688ADB20EB3A64228BF2646BC888D
:1097A000AC421FD9FA883B68A4EB0509341B2C4452
:1097B00002FB05359DF82C301FFA89F114FB02F4E9
:1097C00019FB02F9012B1FFA89F9A4B217D08E42B6
:1097D0000BD872432946404602F0D0F8304602B01A
:1097E000BDE8F0872D1BADB2DAE74A462946404670
:1097F00002F0C4F83968224608EB0900ECE78E4213
:1098000007D816FB02F292B229464046FFF793FFB3
:10981000E4E729F0030A1FFA8AFA5246294640462D
:10982000FFF789FF19F003092DD0C9F1040189B2AE
:10983000A14228BF2146AA44641A002309F1FF303F
:109840000DF1040CA4B20193C0B25546624615F85E
:10985000013B0CF8013BA9EB05035AFA83F3DBB299
:10986000002BF4D13B68024419448B4206D1019B82
:10987000C8F80030002CB1D02246C6E713F8010B1F
:1098800002F8010FF1E73968F4E713B5930800EB2C
:109890008303984209D112F0030204D00B680193AC
:1098A00001A902F06BF802B010BD0C6840F8044B3F
:1098B000EFE770B59A42A2EB03041D4638BF438917
:1098C000A4B238BFE41A838838BFA4B2A3420E46BC
:1098D000114602D2FFF720FF848874B18388AB421F
:1098E00008D9C2880168304602FB051102F046F82B
:1098F000012070BDED1AADB2F1E72046F9E72DE980
:10990000F74F0746B0F80E80008ABD888946397A3D
:1099100016461FFA88F8FA8880B299BB8045A8EBF2
:10992000000138BF788989B23CBF091A89B2691A27
:1099300089B28E4228BF0E464446AC422AD2A5EBDD
:10994000040A751B254439681FFA8AF015FB02F5D5
:109950001AFB02FA012B1FFA8AFAADB202FB0414B9
:1099600025D0864219D872434946204602F006F8AF
:10997000324641463846FFF7C3FEF881304603B011
:10998000BDE8F08FAE4221BF761B02FB06998046F0
:109990002E46D1E7641BA4B2CFE752464946204683
:1099A00001F0ECFF38682A4609EB0A01DEE786423F
:1099B00007D816FB02F292B249462046FFF765FF30
:1099C000D6E72AF0030B1FFA8BFB5A46494620467E
:1099D000FFF75BFF1AF0030A2FD0CAF1040292B21C
:1099E000AA42D9F80030019328BF2A460AF1FF3A6B
:1099F000AD1A5FFA8AF30BF1FF3B0DF1040CADB227
:109A00005C44184661460138C0B21CF801EB04F80A
:109A100001EFFF28F7D1386801330B449C18411E31
:109A2000A34205D11044002DA2D02A464946C5E7DD
:109A300013F801CB01F801CFF2E73868F3E7B2F58C
:109A4000004F10D882805200C38092B29DF800303F
:109A50000372531E838152420023C38101604281FD
:109A600003820120704700207047C189028A89B2B1
:109A700092B29142A1EB020338BF428980889BB227
:109A80003CBF9B1A9BB2984228BF18467047C289B8
:109A9000038A92B29BB2D31A58425841704710B50C
:109AA000C189028A848892B289B29142A1EB0203F1
:109AB00038BF42899BB23CBF9B1A9BB2E01A80B26E
:109AC00010BD38B5C289038A04469BB292B2FFF733
:109AD000F0FE218A0546024689B22046FFF710FEB5
